:100000000C9434000C9451000C9451000C94510049
:100010000C9451000C9451000C9451000C9451001C
:100020000C9451000C9451000C9451000C9451000C
:100030000C9451000C9451000C9451000C945100FC
:100040000C9451000C9451000C9451000C945100EC
:100050000C9451000C9451000C9451000C945100DC
:100060000C9451000C94510011241FBECFEFD8E026
:10007000DEBFCDBF11E0A0E0B1E0ECEBFCE002C0E0
:1000800005900D92A830B107D9F721E0A8E0B1E0C2
:1000900001C01D92A930B207E1F70E94E0000C9464
:1000A0005C060C9400002F923F924F925F926F92E9
:1000B0007F928F929F92AF92BF92CF92DF92EF92F8
:1000C000FF920F931F93CF93DF93CDB7DEB72A979D
:1000D0000FB6F894DEBF0FBECDBF7C018B012AE0C6
:1000E00030E040E050E06A010E94090660636A87E0
:1000F00081E00A301105EC04FD0408F0812D8170C7
:10010000803019F0E9E0F0E031C089E090E04C0186
:10011000CE0101962C01B801C7012AE030E0190197
:1001200040E050E03A010E94090669015A01B60117
:10013000C5019101A3010E9409066063C4010197F2
:10014000D2014C01A80FB91F6C9381E00436110550
:10015000E604F70408F0812D817080308601750176
:1001600009F4D9CFF401EA30F10589F0CE01019606
:10017000DC01AE0FBF1F2C913091C00030723030C7
:10018000D9F32093C6003196EA30F10589F72A9613
:100190000FB6F894DEBF0FBECDBFDF91CF911F9198
:1001A0000F91FF90EF90DF90CF90BF90AF909F9016
:1001B0008F907F906F905F904F903F902F90089519
:1001C0000E94E2002F923F924F925F926F927F9235
:1001D0008F929F92AF92BF92CF92DF92EF92FF9257
:1001E0000F931F938FB7F89490910801913009F401
:1001F000D4C291E0909308018FBF5998519A80E141
:1002000090E09093C5008093C4001092C00088E1F4
:100210008093C10086E08093C200809180008C7F33
:1002200081608093800080918100807E8B608093CC
:1002300081008091B00083608093B0008091B10014
:10024000887F84608093B10045983D9A3C9844989B
:1002500043983B9A3A9842984198399A38984098EE
:100260005C98549A5D98559A5F98579A5E98569AFA
:100270002998219A5B98539A8FB7F89490918000AF
:100280009F739068909380008FBF8FB7F894909180
:10029000B0009F7C90629093B0008FBF8BE490E0A1
:1002A0007C018BE891E06C0100E010E051E6AFE0EA
:1002B000B0E08FEF9FEF2C018BEB97E24C0145985C
:1002C000C7010197F1F7459AC6010197F1F74598E3
:1002D00086B18071803009F019C085E090E0980106
:1002E00041E0883A95072007310708F4412D417015
:1002F000403009F03BC0FD013197F1F78F5F9F4F10
:100300002F4F3F4F46B14071403051F386B180715D
:100310008030580109F42BC0B801C8013AEE21E041
:10032000603673078007910708F4212D2170203073
:1003300009F01CC0FD013197F1F76F5F7F4F8F4FC0
:100340009F4F26B12071203051F7C8012FE936E4C4
:10035000A8010E943206AFE0B0E051E682958F70AE
:10036000929589279F7089275C0101C058014398A5
:10037000C7010197F1F7439AC6010197F1F7439836
:1003800086B18470803009F019C085E090E0980152
:1003900041E0883A95072007310708F4412D417064
:1003A000403009F03BC0FD013197F1F78F5F9F4F5F
:1003B0002F4F3F4F46B14470403051F386B18470A7
:1003C0008030380109F42BC0B801C8013AEE21E0B1
:1003D000603673078007910708F4212D21702030C3
:1003E00009F01CC0FD013197F1F76F5F7F4F8F4F10
:1003F0009F4F26B12470203051F7C8012FE936E411
:10040000A8010E943206AFE0B0E051E682958F70FD
:10041000929589279F7089273C0101C03801419836
:10042000C7010197F1F7419AC6010197F1F7419889
:1004300086B18170803009F019C085E090E09801A4
:1004400041E0883A95072007310708F4412D4170B3
:10045000403009F03AC0FD013197F1F78F5F9F4FAF
:100460002F4F3F4F46B14170403051F386B18170FC
:100470008030180109F42AC0B801C80141E050E0F9
:100480003AEE21E0603673078007910708F4212DCA
:100490002170203009F07FC1FD013197F1F76F5FC6
:1004A0007F4F8F4F9F4F26B12170203051F7C801E9
:1004B0002FE936E4A8010E94320682958F7092954A
:1004C00089279F7089271C0101C0180141E050E075
:1004D000912DD801892FA050BF4F9C912091C00031
:1004E00020722030D9F39093C600817091E0803063
:1004F000DA0181F3B501C8010E945300C801DC0193
:10050000AE5FBE4F2C913091C00030723030D9F3C5
:100510002093C60001968330910589F7B301C80185
:100520000E945300C801DC01AB5FBE4F2C9130919B
:10053000C00030723030D9F32093C600019683306A
:10054000910589F7B101C8010E9453008091C00054
:1005500080728030D9F38AE08093C60093012451E1
:100560003040C8018040904041E02D3E2FEF3207DF
:1005700092018207930751E6AFE0B0E008F4412D05
:100580004170C10184519040980120403040B50134
:1005900064517040F801E040F0405C9A5D985F9AC9
:1005A0005E98403009F024C041E06D3E6FEF760761
:1005B000B201E607F70708F4412D41704030C1F45D
:1005C00041E08D3E8FEF9807C2012807390708F0F8
:1005D000412D4170403061F08AEF90E090938900A6
:1005E000809388008AEF8093B40067EF7FE3BBC0FD
:1005F00010938900009388001092B400C8019801FC
:1006000067EF7FE3FB013197F1F741E0833291051A
:100610002007310708F0412D41708F5F9F4F2F4F0A
:100620003F4F403079F7C4010197F1F75C985D9A2C
:100630005F985E9A8AEF90E090938900809388009B
:100640008AEF8093B400C8019801FB013197F1F75C
:1006500041E0833291052007310708F0412D4170B8
:100660008F5F9F4F2F4F3F4F403079F7C401019765
:10067000F1F75C985D985F985E98109389000093FD
:1006800088001092B400C8019801FB013197F1F77E
:1006900041E0873191052007310708F0412D417075
:1006A0008F5F9F4F2F4F3F4F403079F78BE79AE195
:1006B0000197F1F781E02A143B040007110708F0C5
:1006C000812D81709BB1803039F09F7E9BB95D9AFE
:1006D0005F9A8BB18F7B06C090619BB95D985F98E4
:1006E0008BB180648BB98AEF90E0909389008093FE
:1006F00088008AEF8093B400C8019801FB0131970C
:10070000F1F741E0883491052007310708F0412DC9
:1007100041708F5F9F4F2F4F3F4F403079F78BE7EE
:100720009FE00197F1F75C985D985F985E98109351
:100730008900009388001092B400C8019801FB0161
:100740003197F1F741E0833291052007310708F036
:10075000412D41708F5F9F4F2F4F3F4F403079F7B2
:10076000C4010197F1F7C8019801FB013197F1F736
:1007700041E0873191052007310708F0412D417094
:100780008F5F9F4F2F4F3F4F403079F78BE79AE1B4
:100790000197F1F794CD18019BCE8FBF0E94D4032F
:1007A0000E94D6030E94D0030E94D203FFCF2F9253
:1007B0003F924F925F926F927F928F929F92AF92F1
:1007C000BF92CF92DF92EF92FF920F931F93CF933E
:1007D000DF93CDB7DEB722970FB6F894DEBF0FBE1A
:1007E000CDBF390128011A014C0181E024143504E0
:1007F0006605770508F0812D8170803021F040E09A
:1008000050E09A0152C16115710509F041C0C10162
:1008100096958795822993299C013695279536953B
:100820002795282B392BA901529542954F704527C2
:100830005F704527422B532BCA01892F9927842BA0
:10084000952B809590959C01369527952575357546
:10085000821B930B9C012373337396958795969512
:10086000879583739373820F931F9C013295229512
:100870002F7023273F702327280F391F2F703F70B9
:10088000C901892F9927820F931F907040963FC00E
:10089000CB0196958795862B972B9C0136952795AE
:1008A00036952795282B392BA901529542954F70E3
:1008B00045275F704527422B532BCA01892F992763
:1008C000842B952B809590959C01369527952575C1
:1008D0003575821B930B9C01237333739695879513
:1008E0009695879583739373820F931F9C0132951E
:1008F00022952F7023273F702327280F391F2F7031
:100900003F70C901892F9927820F931F907061143E
:10091000710409F041C092013695279524293529A3
:10092000A9015695479556954795422B532BFA01A9
:10093000F295E295EF70EF27FF70EF27E42BF52B90
:100940009F01232F33272E2B3F2B20953095A90174
:100950005695479545755575241B350BA90143736D
:100960005373369527953695279523733373240F44
:10097000351FA901529542954F7045275F70452755
:10098000420F531F4F705F70FA01EF2FFF27E40FE4
:10099000F51FF07070963FC0930136952795262974
:1009A0003729A9015695479556954795422B532BC4
:1009B000FA01F295E295EF70EF27FF70EF27E42B35
:1009C000F52B9F01232F33272E2B3F2B209530957E
:1009D000A9015695479545755575241B350BA901F9
:1009E0004373537336952795369527952373337341
:1009F000240F351FA901529542954F7045275F700E
:100A00004527420F531F4F705F70FA01EF2FFF27EA
:100A1000E40FF51FF070E81BF90B8E2F8F718030FB
:100A20009201A30149F09201A301220F331F441F39
:100A3000551F8A958030C9F781E022163306640776
:100A4000750708F0812D81709070E81BF90BAF01DC
:100A50004F715070403059F0842FD2017301AA0FAA
:100A6000BB1FEE1CFF1C8A958030C9F702C0D20163
:100A700073012A1A3B0A6E097F0920E030E081E009
:100A800090E0403031F0880F991F221F331F4A95A4
:100A9000F8CF41E0241435046605770508F0412DB0
:100AA0004170403009F425C0AC0161015B01F401E3
:100AB000D582C48251834083B782A6823383228346
:100AC00022960FB6F894DEBF0FBECDBFDF91CF9157
:100AD0001F910F91FF90EF90DF90CF90BF90AF905C
:100AE0009F908F907F906F905F904F903F902F904E
:100AF000089541E05F2D55230AF4412D41704030A7
:100B000041F0FA83E983FC018901AC0161015B01D9
:100B100043C0F694E794B795A7953197FA83E98394
:100B20004E2F4F7100E010E0E1E0F0E0403031F096
:100B3000EE0FFF1F001F111F4A95F8CF6101CA1A5F
:100B4000DB0A5B01AE08BF0851E04B2D442341E0B6
:100B50000AF4412D4170403009F46101403009F43C
:100B60005B01C414D504A604B70408F0512D40302D
:100B7000B80111F460E070E05170752E4030AF01A3
:100B800011F440E050E0622B732B9B01482B592B52
:100B9000872D803009F08BCF2A013901E150F040D8
:100BA0000040104089819A8181159105E1F0CC0CBB
:100BB000DD1CAA1CBB1C96012A1B3B0BB5016E0950
:100BC0007F092F5F3F4F6F4F7F4F41E0572F5523D6
:100BD0000AF0412D4170403009F45B01403009F4C6
:100BE00069010197E1CFEC21FD21A2014E2B5F2B82
:100BF0000A211B219301202B312B89819A818F712E
:100C0000803009F454CFB694A794D794C7948A95AA
:100C1000F7CF0F931F93CF93DF93CDB7DEB728970E
:100C20000FB6F894DEBF0FBECDBFFA0189019C015B
:100C3000AB01CE010196B9019F010E94D7038F81BC
:100C400098856D817E814B815C8129813A812896CE
:100C50000FB6F894DEBF0FBECDBFDF91CF911F91CD
:100C60000F910895DB018F939F930E944206BF91DD
:100C7000AF91A29F800D911DA39F900DB29F900DEB
:100C8000112408950E944D06A59F900DB49F900DCC
:100C9000A49F800D911D11240895A29FB001B39FC0
:100CA000C001A39F700D811D1124911DB29F700D75
:0C0CB000811D1124911D0895F894FFCFC0
:080CBC004C3A20463A20523A5E
:00000001FF
