:100000000C9434000C9451000C9451000C94510049
:100010000C9451000C9451000C9451000C9451001C
:100020000C9451000C9451000C9451000C9451000C
:100030000C9451000C9451000C9451000C945100FC
:100040000C9451000C9451000C9451000C945100EC
:100050000C9451000C9451000C9451000C945100DC
:100060000C9451000C94510011241FBECFEFD8E026
:10007000DEBFCDBF11E0A0E0B1E0ECEBF6E002C0E6
:1000800005900D92AE3BB107D9F721E0AEEBB1E0A0
:1000900001C01D92AF3BB207E1F70E94F6000C943D
:1000A0005C030C9400002F923F924F925F926F92EC
:1000B0007F928F929F92AF92BF92CF92DF92EF92F8
:1000C000FF920F931F93CF93DF93CDB7DEB72397A4
:1000D0000FB6F894DEBF0FBECDBF9DEC899F912D6A
:1000E00011249695969596952AE092021124982FC0
:1000F000901990639B839E012F5F3F4F69018A3067
:1001000028F4C6010296DC01019648C0082F112789
:1001100082E090E05C018DEC9CEC4C0180E090E092
:100120002C018AE999E11C01B8013201C301940153
:10013000A3010E9432037C01F694E794F694E794BD
:10014000F694E794812D912DB7019101A3010E94AE
:1001500032032AE0D6019202902D1124829F812D34
:100160001124890F982F88279001282B392BC7013C
:10017000821B930B8063F50131975F01AE0FBF1FA8
:100180008C9304361105870108F0CECF95012330FA
:10019000310599F0CD01821B930B0396FD0120815F
:1001A0003091C00030723030D9F32093C600FD0189
:1001B0003196DF01E817F90789F723960FB6F8940F
:1001C000DEBF0FBECDBFDF91CF911F910F91FF908A
:1001D000EF90DF90CF90BF90AF909F908F907F90E7
:1001E0006F905F904F903F902F9008950E94F8007D
:1001F000CF92DF92EF92FF920F931F938FB7F894F5
:100200009091BE01913019F48FBF0E942F0391E0AD
:100210009093BE018FBF5998519A8FEC90E09093C4
:10022000C5008093C40082E08093C00088E1809381
:10023000C10086E08093C2005A98529A5C98549A02
:100240005F98579A2898209A809180008C7F8160CF
:100250008093800080918100807E8B6080938100FC
:100260008091B00083608093B0008091B100887F5E
:1002700084608093B1002A98229A2B98239A8FB792
:10028000F894909180009F7C9062909380008FBF43
:100290008FB7F8949091B0009F7390689093B000DE
:1002A0008FBF88EC90E090938B0080938A0088EC5D
:1002B0008093B30080E090E0DC01A050BF4F2C9110
:1002C0003091C00030723030D9F32093C6000196CF
:1002D0008632910589F780E090E0DC01AA5DBE4F8F
:1002E0002C913091C00030723030D9F32093C60089
:1002F00001968732910589F714E080E090E07C0157
:1003000009E181E090E06C018091C0008823E2F770
:100310008091C6008D320CF442C082340CF07BC058
:100320008D3209F09EC040918A0050918B00942F2D
:100330009951812D21E0491708F0282F203009F428
:10034000892F833308F482E3282F332730938B00DF
:1003500020938A008093B300F701DF01AD59BE4FAF
:100360009C912091C00020722030D9F39093C60058
:100370003196EB30F10589F70E945300C701DC018B
:10038000AE5ABE4F2C913091C00030723030D9F34C
:100390002093C60001968630910589F7B5CF8B3240
:1003A00009F05FC080918A0090918B00982F975E32
:1003B00021E0981708F0212D8FEF203009F4892FC4
:1003C000282F332730938B0020938A008093B3002B
:1003D000F701DF01A85ABE4F9C912091C000207206
:1003E0002030D9F39093C6003196EB30F10589F7B0
:1003F0000E945300C701DC01AE5ABE4F2C913091D0
:10040000C00030723030D9F32093C6000196863098
:10041000910589F779CF8C34F4F08C3409F48FC0CE
:10042000823509F45EC08335E1F45A985C985F9890
:100430002898C701DC01AD54BE4F2C913091C0000B
:1004400030723030D9F32093C60001968A3091057E
:1004500089F714E059CF823409F4D0C0863409F406
:100460009FC0982F90539A3008F032C08002802DA0
:100470001124805B833308F482E3282F33273093E1
:100480008B0020938A008093B300F701DF01A35B08
:10049000BE4F9C912091C00020722030D9F39093E0
:1004A000C6003196E530F10589F70E945300C70177
:1004B000DC01AE5ABE4F2C913091C000307230300A
:1004C000D9F32093C60001968630910589F71CCF99
:1004D00012300CF462C0123009F431C0133009F04C
:1004E000A4CF5A985C9A5F9A289880918A0090913C
:1004F0008B00F701DF01AD55BE4F9C912091C000EC
:1005000020722030D9F39093C6003196E031F10586
:1005100089F70E945300912DD701892FA058BE4F13
:100520009C912091C00020722030D9F39093C60096
:10053000817091E08030D60181F313E0E5CE5A9AC4
:100540005C985F98289A80918A0090918B00F701BF
:10055000DF01AD56BE4F9C912091C000207220302B
:10056000D9F39093C6003196E031F10589F70E94E6
:100570005300912DD701892FA058BE4F9C912091F7
:10058000C00020722030D9F39093C600817091E0B2
:100590008030D60181F312E0B7CE103009F02EC0C2
:1005A0005A9A5C985F9A289880918A0090918B0063
:1005B000F701DF01A259BE4F9C912091C00020722B
:1005C0002030D9F39093C6003196E231F10589F7D6
:1005D0000E945300912DD701892FA058BE4F9C91A6
:1005E0002091C00020722030D9F39093C600817012
:1005F00091E08030D601112D79F386CE5A985C9A1D
:100600005F98289A80918A0090918B00F701DF0112
:10061000AE57BE4F9C912091C00020722030D9F37C
:100620009093C6003196E131F10589F70E9453009D
:10063000112DD701812FA058BE4F9C912091C00051
:1006400020722030D9F39093C600817011E0803081
:10065000D60181F359CE0E9431030E942B030E94E0
:100660002D03FFCFDB018F939F930E944203BF9125
:10067000AF91A29F800D911DA39F900DB29F900DF1
:10068000112408950E944D03A59F900DB49F900DD5
:10069000A49F800D911D11240895A29FB001B39FC6
:1006A000C001A39F700D811D1124911DB29F700D7B
:0C06B000811D1124911D0895F894FFCFC6
:1006BC00526F626F742048617A6972212050574DD5
:1006CC003A2044313028536F6C292C204431312886
:1006DC00536167290D0A536572766F2070696E6CD1
:1006EC0065726920736572626573743A2044332CA9
:1006FC002044352C2044362C2044390D0A48697A84
:10070C003A202F3235350D0A48697A204152544926
:10071C00523A2048697A20415A414C543A20596F38
:10072C006E3A20494C455249202D2048697A3A208E
:10073C000D0A596F6E3A2047455249202D204869C1
:10074C007A3A20596F6E3A20534F4C202D2048692D
:10075C007A3A20596F6E3A20534147202D20486930
:0E076C007A3A20596F6E3A204455520D0A0019
:00000001FF
