:100000000C9434000C9451000C9451000C94510049
:100010000C9451000C9451000C9451000C9451001C
:100020000C9451000C9451000C9451000C9451000C
:100030000C9451000C9451000C9451000C945100FC
:100040000C9451000C9451000C9451000C945100EC
:100050000C9451000C9451000C9451000C945100DC
:100060000C9451000C94510011241FBECFEFD8E026
:10007000DEBFCDBF11E0A0E0B1E0E4E3F6E002C0F6
:1000800005900D92A83CB107D9F721E0A8ECB1E0AA
:1000900001C01D92A93CB207E1F70E94DD000C945B
:1000A00018030C940000FFCF6F927F928F929F9263
:1000B000AF92BF92CF92DF92EF92FF920F931F9376
:1000C000CF93DF93CDB7DEB723970FB6F894DEBF9B
:1000D0000FBECDBF082F112723E030E08DEC9CEC44
:1000E0007C0180E090E06C01CE0101964C01590149
:1000F0003901B801A601CA0197010E94EE02969546
:10010000879596958795969587953AE09302202D49
:100110001124839F412D1124420F542F4427900115
:10012000242B352BA801421B530B4063F30131975D
:10013000D401AE0FBF1F4C930A30110548F0E115F2
:10014000F1053F015F018C0109F0D3CF0E949F02AE
:1001500064E070E06A197B09CD010E94C400239617
:100160000FB6F894DEBF0FBECDBFDF91CF911F91C8
:100170000F91FF90EF90DF90CF90BF90AF909F9046
:100180008F907F906F900895DC016A0F7B1F81E054
:100190006A177B0708F0812D813069F08C9190916E
:1001A000C00090729030D9F38093C6001196A617C4
:1001B000B707A1F708950E94A9020E94DF002F92BD
:1001C0003F924F925F926F927F928F929F92AF92E7
:1001D000BF92CF92DF92EF92FF920F931F938FB750
:1001E000F8949091C801913019F48FBF0E94A10238
:1001F00091E09093C8018FBF5998519A8FEC90E08D
:100200009093C5008093C40082E08093C00088E191
:100210008093C10086E08093C2005A98529A5C98FD
:10022000549A5F98579A2898209A2D98259A2D9835
:10023000809180008C7F816080938000809181001C
:10024000807E8B60809381008091B000836080937A
:10025000B0008091B100887F84608093B1002A98BB
:10026000229A2B98239A8FB7F894909180009F7CC4
:100270009062909380008FBF8FB7F8949091B000F8
:100280009F7390689093B0008FBF8FE790E090933A
:100290008B0080938A008FE78093B30080E091E029
:1002A00067E170E00E94C40087E191E001E210E0A4
:1002B000B8010E94C40088E391E0B8010E94C40024
:1002C00000E010E027EF3FE34BEF54E3B801F80103
:1002D00080E283B9D8016801C9010197F1F791E083
:1002E000AF32B10576010E051F0508F0912D917012
:1002F000AF5FBF4F0F4F1F4F903071F7CA0101978B
:10030000F1F791E0623071058601E007F10708F02E
:10031000912D91706F5F7F4FEF4FFF4F903009F03D
:10032000D7CF2D9889E591E05C0187E090E04C0102
:1003300080E691E03C0181E090E02C0186E090E0D5
:100340001C0100E28091C0008823E2F71091C600F2
:10035000C501B4010E94C400E12EFF24B701C6010B
:100360000E94AB02C301B2010E94C4001634A4F083
:1003700012350CF026C0163409F470C01C3409F094
:1003800049C05A9A5C985F98289AE0908A00F09049
:100390008B008DEA91E078C01B3209F421C01D3238
:1003A00009F49AC0123409F035C05A985C9A5F98E3
:1003B000289AE0908A00F0908B0081EA91E06CE04E
:1003C00064C0123509F456C0133509F023C05A9899
:1003D0005C985F98289883EC91E065E070E05EC0DF
:1003E00020918A0030918B00822F875E91E08217E6
:1003F00008F0912D1FEF903009F4182F812F9927C5
:1004000090938B0080938A001093B3008CE691E068
:100410006BE01FC0812F80538A3008F07DC089E1D6
:100420001802102D1124912F905B1E5781E019178F
:1004300008F0812D8170803009F07FC0812F9927CD
:1004400090938B0080938A001093B30081E691E033
:1004500065E070E00E94C400812F56C05A9A5C98F3
:100460005F9A2898E0908A00F0908B0084E991E0F0
:100470006DE00BC05A985C9A5F9A2898E0908A00C9
:10048000F0908B0088EB91E06BE070E00E94C4007C
:100490008E2D0E94540086E691E0B1010E94C400B6
:1004A00003B9B601CB019B01A7EFBFE3FD01319773
:1004B000F1F741E0811591052607370709F0412D35
:1004C00041708F5F9F4F2F4F3F4F403079F78BE345
:1004D0009CE10197F1F736CF80918A0090918B00D3
:1004E0008C3408F48BE48951E82E8E2D9927909353
:1004F0008B0080938A00E092B30087E791E06BE085
:1005000070E00E94C4008E2D0E94540086E691E0A7
:10051000B1010E94C40016CF82E891E060E170E072
:100520000E94C400B701C6010E94AB0282E991E0BB
:1005300062E070E00E94C40005CF0E949F020E940A
:10054000A3020E949F020E9453000E94A7020E94E1
:1005500053000E94A502CF93DF93CDB7DEB7249757
:100560000FB6F894DEBF0FBECDBF21E031E03C8373
:100570002B833A83298340E050E021E06038710505
:100580008407950708F0212D2170203019F0698328
:1005900061E014C0862F880F771F981F880F771F80
:1005A000991F872F806C8983CE0101962FEF8F3F93
:1005B000920791F06F7360686A8362E070E0CE0129
:1005C00001960E94C40024960FB6F894DEBF0FBEB9
:1005D000CDBFDF91CF9108950E94A902DB018F93D7
:1005E0009F930E94FE02BF91AF91A29F800D911D2B
:1005F000A39F900DB29F900D112408950E940903AE
:10060000A59F900DB49F900DA49F800D911D112466
:100610000895A29FB001B39FC001A39F700D811DDB
:100620001124911DB29F700D811D1124911D0895FB
:04063000F894FFCF6C
:10063400526F626F74204261736C6174696C697982
:100644006F722E2E2E0D0A50574D2050696E6C6518
:1006540072693A2044313028536F6C292C2044317C
:100664003128536167290D0A4B6F6E74726F6C20C9
:1006740050696E6C6572693A2044322C2044342CE3
:100684002044372C2044380D0A47656C656E3A20A7
:100694000D48697A3A202F3235350D0A48697A2097
:1006A40041525449523A2048697A20415A414C54A3
:1006B4003A20476563657273697A206B6F6D757450
:1006C4003A200D0A494C455249202D2048697A3A6E
:1006D4002047455249202D2048697A3A20534F4CEF
:1006E400202D2048697A3A20534147202D2048691B
:0806F4007A3A204455520D0A28
:00000001FF
